{
  "contractName": "Lottery",
  "abi": [
    {
      "inputs": [
        {
          "internalType": "uint256",
          "name": "duration",
          "type": "uint256"
        }
      ],
      "stateMutability": "nonpayable",
      "type": "constructor"
    },
    {
      "inputs": [
        {
          "internalType": "address",
          "name": "buyerAddress",
          "type": "address"
        }
      ],
      "name": "buyTicket",
      "outputs": [],
      "stateMutability": "payable",
      "type": "function"
    },
    {
      "inputs": [
        {
          "internalType": "address",
          "name": "addressNumber",
          "type": "address"
        }
      ],
      "name": "addTicketAddress",
      "outputs": [],
      "stateMutability": "nonpayable",
      "type": "function"
    },
    {
      "inputs": [],
      "name": "getTicketAddress",
      "outputs": [
        {
          "internalType": "address[]",
          "name": "addresses",
          "type": "address[]"
        }
      ],
      "stateMutability": "view",
      "type": "function"
    },
    {
      "inputs": [
        {
          "internalType": "uint256",
          "name": "seed",
          "type": "uint256"
        }
      ],
      "name": "random",
      "outputs": [
        {
          "internalType": "uint256",
          "name": "",
          "type": "uint256"
        }
      ],
      "stateMutability": "pure",
      "type": "function"
    },
    {
      "inputs": [],
      "name": "drawWinner",
      "outputs": [],
      "stateMutability": "nonpayable",
      "type": "function"
    },
    {
      "inputs": [
        {
          "internalType": "address",
          "name": "ticketAddress",
          "type": "address"
        }
      ],
      "name": "checkIfWin",
      "outputs": [
        {
          "internalType": "bool",
          "name": "",
          "type": "bool"
        }
      ],
      "stateMutability": "view",
      "type": "function"
    },
    {
      "inputs": [],
      "name": "sendWinnerPrice",
      "outputs": [],
      "stateMutability": "payable",
      "type": "function"
    }
  ],
  "bytecode": "0x608060405234801561001057600080fd5b5060405161068b38038061068b8339818101604052602081101561003357600080fd5b81019080805190602001909291905050508042016000819055505061062e8061005d6000396000f3fe6080604052600436106100705760003560e01c8063ad55c4b51161004e578063ad55c4b51461012c578063b2185bb114610198578063b863bd37146101af578063f56f2249146101fe57610070565b80631191cfbf146100755780638ca689111461007f578063a5f8cdbb146100e8575b600080fd5b61007d61024f565b005b34801561008b57600080fd5b506100ce600480360360208110156100a257600080fd5b81019080803573ffffffffffffffffffffffffffffffffffffffff16906020019092919050505061031f565b604051808215151515815260200191505060405180910390f35b61012a600480360360208110156100fe57600080fd5b81019080803573ffffffffffffffffffffffffffffffffffffffff169060200190929190505050610387565b005b34801561013857600080fd5b506101416103a2565b6040518080602001828103825283818151815260200191508051906020019060200280838360005b83811015610184578082015181840152602081019050610169565b505050509050019250505060405180910390f35b3480156101a457600080fd5b506101ad610430565b005b3480156101bb57600080fd5b506101e8600480360360208110156101d257600080fd5b810190808035906020019092919050505061055f565b6040518082815260200191505060405180910390f35b34801561020a57600080fd5b5061024d6004803603602081101561022157600080fd5b81019080803573ffffffffffffffffffffffffffffffffffffffff169060200190929190505050610592565b005b600073ffffffffffffffffffffffffffffffffffffffff16600260009054906101000a900473ffffffffffffffffffffffffffffffffffffffff1673ffffffffffffffffffffffffffffffffffffffff1614156102ab57600080fd5b600260009054906101000a900473ffffffffffffffffffffffffffffffffffffffff1673ffffffffffffffffffffffffffffffffffffffff166108fc6001805490506103e8029081150290604051600060405180830381858888f1935050505015801561031c573d6000803e3d6000fd5b50565b60008173ffffffffffffffffffffffffffffffffffffffff16600260009054906101000a900473ffffffffffffffffffffffffffffffffffffffff1673ffffffffffffffffffffffffffffffffffffffff161461037d576000610380565b60015b9050919050565b6103e834101561039657600080fd5b61039f81610592565b50565b6060600180548060200260200160405190810160405280929190818152602001828054801561042657602002820191906000526020600020905b8160009054906101000a900473ffffffffffffffffffffffffffffffffffffffff1673ffffffffffffffffffffffffffffffffffffffff16815260200190600101908083116103dc575b5050505050905090565b61012c60005401421161044257600080fd5b600073ffffffffffffffffffffffffffffffffffffffff16600260009054906101000a900473ffffffffffffffffffffffffffffffffffffffff1673ffffffffffffffffffffffffffffffffffffffff161461049d57600080fd5b6000600143034060405160200180828152602001915050604051602081830303815290604052805190602001209050600180805490506104df8360001c61055f565b816104e657fe5b06815481106104f157fe5b9060005260206000200160009054906101000a900473ffffffffffffffffffffffffffffffffffffffff16600260006101000a81548173ffffffffffffffffffffffffffffffffffffffff021916908373ffffffffffffffffffffffffffffffffffffffff16021790555050565b600081604051602001808281526020019150506040516020818303038152906040528051906020012060001c9050919050565b6001819080600181540180825580915050600190039060005260206000200160009091909190916101000a81548173ffffffffffffffffffffffffffffffffffffffff021916908373ffffffffffffffffffffffffffffffffffffffff1602179055505056fea264697066735822122012121046c3ac9d9bd54bffc4ada85fcf09ef9edec5a3d426b2f7a19e0095215764736f6c63430006010033",
  "source": "pragma solidity >0.6.0;\n\ncontract Lottery {\n\n    uint constant TICKET_PRICE = 1000 wei;\n    uint ticketingCloses;\n\n    address[] tickets;\n    address payable winner;\n\n    constructor (uint duration) public {\n        ticketingCloses = block.timestamp + duration;\n    }\n    \n    // Use this function to buy a ticket\n    function buyTicket (address buyerAddress) payable public {\n\t    require(msg.value >= TICKET_PRICE);\n        addTicketAddress(buyerAddress);\n    }\n\n    function addTicketAddress (address addressNumber) public {\n        tickets.push(addressNumber);\n    }\n\n    function getTicketAddress () public view returns (address[] memory addresses) {\n        addresses = tickets;\n    }\n\n    function random(uint seed) public pure returns (uint) {  \n        return uint(keccak256(abi.encodePacked(seed)));\n    } //use case : random(0x7543def) % 100;\n\n    function drawWinner () public {\n\t    require(block.timestamp > ticketingCloses + 5 minutes);\n\t    require(winner == address(0));\n\n\t    bytes32 seed = keccak256(abi.encodePacked(blockhash(block.number-1)));\n\t    winner = payable(tickets[random(uint(seed)) % tickets.length]);\n    }\n\n    function checkIfWin (address ticketAddress) public view returns (bool) {\n        return (winner == ticketAddress ? true : false);\n    }\n\n    function sendWinnerPrice () payable public {\n\t    require(winner != address(0));\n        \n        payable(winner).transfer(1000 * tickets.length);\n    }\n\n}",
  "sourcePath": "/Users/retepmil/Desktop/SmartContract/lottery/contracts/Lottery.sol",
  "compiler": {
    "name": "solc",
    "version": "0.6.1+commit.e6f7d5a4.Emscripten.clang"
  },
  "schemaVersion": "3.4.4",
  "updatedAt": "2022-02-03T08:54:16.727Z",
  "devdoc": {
    "methods": {}
  },
  "userdoc": {
    "methods": {}
  }
}