{
  "contractName": "Lottery",
  "abi": [
    {
      "inputs": [
        {
          "internalType": "uint256",
          "name": "duration",
          "type": "uint256"
        }
      ],
      "stateMutability": "nonpayable",
      "type": "constructor"
    },
    {
      "inputs": [
        {
          "internalType": "address",
          "name": "buyerAddress",
          "type": "address"
        }
      ],
      "name": "buyTicket",
      "outputs": [],
      "stateMutability": "payable",
      "type": "function",
      "payable": true
    },
    {
      "inputs": [
        {
          "internalType": "address",
          "name": "addressNumber",
          "type": "address"
        }
      ],
      "name": "addTicketAddress",
      "outputs": [],
      "stateMutability": "nonpayable",
      "type": "function"
    },
    {
      "inputs": [],
      "name": "getTicketAddress",
      "outputs": [
        {
          "internalType": "address[]",
          "name": "addresses",
          "type": "address[]"
        }
      ],
      "stateMutability": "view",
      "type": "function",
      "constant": true
    },
    {
      "inputs": [
        {
          "internalType": "uint256",
          "name": "seed",
          "type": "uint256"
        }
      ],
      "name": "random",
      "outputs": [
        {
          "internalType": "uint256",
          "name": "",
          "type": "uint256"
        }
      ],
      "stateMutability": "pure",
      "type": "function",
      "constant": true
    },
    {
      "inputs": [],
      "name": "drawWinner",
      "outputs": [],
      "stateMutability": "nonpayable",
      "type": "function"
    },
    {
      "inputs": [
        {
          "internalType": "address",
          "name": "ticketAddress",
          "type": "address"
        }
      ],
      "name": "checkIfWin",
      "outputs": [
        {
          "internalType": "bool",
          "name": "",
          "type": "bool"
        }
      ],
      "stateMutability": "view",
      "type": "function",
      "constant": true
    },
    {
      "inputs": [],
      "name": "sendWinnerPrice",
      "outputs": [],
      "stateMutability": "payable",
      "type": "function",
      "payable": true
    }
  ],
  "bytecode": "0x608060405234801561001057600080fd5b506040516106723803806106728339818101604052602081101561003357600080fd5b8101908080519060200190929190505050804201600081905550506106158061005d6000396000f3fe6080604052600436106100705760003560e01c8063ad55c4b51161004e578063ad55c4b51461012c578063b2185bb114610198578063b863bd37146101af578063f56f2249146101fe57610070565b80631191cfbf146100755780638ca689111461007f578063a5f8cdbb146100e8575b600080fd5b61007d61024f565b005b34801561008b57600080fd5b506100ce600480360360208110156100a257600080fd5b81019080803573ffffffffffffffffffffffffffffffffffffffff169060200190929190505050610316565b604051808215151515815260200191505060405180910390f35b61012a600480360360208110156100fe57600080fd5b81019080803573ffffffffffffffffffffffffffffffffffffffff16906020019092919050505061037e565b005b34801561013857600080fd5b5061014161038a565b6040518080602001828103825283818151815260200191508051906020019060200280838360005b83811015610184578082015181840152602081019050610169565b505050509050019250505060405180910390f35b3480156101a457600080fd5b506101ad610418565b005b3480156101bb57600080fd5b506101e8600480360360208110156101d257600080fd5b8101908080359060200190929190505050610546565b6040518082815260200191505060405180910390f35b34801561020a57600080fd5b5061024d6004803603602081101561022157600080fd5b81019080803573ffffffffffffffffffffffffffffffffffffffff169060200190929190505050610579565b005b600073ffffffffffffffffffffffffffffffffffffffff16600260009054906101000a900473ffffffffffffffffffffffffffffffffffffffff1673ffffffffffffffffffffffffffffffffffffffff1614156102ab57600080fd5b600260009054906101000a900473ffffffffffffffffffffffffffffffffffffffff1673ffffffffffffffffffffffffffffffffffffffff166108fc479081150290604051600060405180830381858888f19350505050158015610313573d6000803e3d6000fd5b50565b60008173ffffffffffffffffffffffffffffffffffffffff16600260009054906101000a900473ffffffffffffffffffffffffffffffffffffffff1673ffffffffffffffffffffffffffffffffffffffff1614610374576000610377565b60015b9050919050565b61038781610579565b50565b6060600180548060200260200160405190810160405280929190818152602001828054801561040e57602002820191906000526020600020905b8160009054906101000a900473ffffffffffffffffffffffffffffffffffffffff1673ffffffffffffffffffffffffffffffffffffffff16815260200190600101908083116103c4575b5050505050905090565b600560005401421161042957600080fd5b600073ffffffffffffffffffffffffffffffffffffffff16600260009054906101000a900473ffffffffffffffffffffffffffffffffffffffff1673ffffffffffffffffffffffffffffffffffffffff161461048457600080fd5b6000600143034060405160200180828152602001915050604051602081830303815290604052805190602001209050600180805490506104c68360001c610546565b816104cd57fe5b06815481106104d857fe5b9060005260206000200160009054906101000a900473ffffffffffffffffffffffffffffffffffffffff16600260006101000a81548173ffffffffffffffffffffffffffffffffffffffff021916908373ffffffffffffffffffffffffffffffffffffffff16021790555050565b600081604051602001808281526020019150506040516020818303038152906040528051906020012060001c9050919050565b6001819080600181540180825580915050600190039060005260206000200160009091909190916101000a81548173ffffffffffffffffffffffffffffffffffffffff021916908373ffffffffffffffffffffffffffffffffffffffff1602179055505056fea26469706673582212209c21263d5710d07c936fb3fa2fe038c5395d55a0d5500c8733291f5795caeb5764736f6c63430006010033",
  "source": "pragma solidity >0.6.0;\n\ncontract Lottery {\n\n    uint constant TICKET_PRICE = 1 ether;\n    uint ticketingCloses;\n\n    address[] tickets;\n    address payable winner;\n\n    constructor (uint duration) public {\n        ticketingCloses = block.timestamp + duration;\n    }\n    \n    // Use this function to buy a ticket\n    function buyTicket (address buyerAddress) payable public {\n\t    //require(msg.value >= TICKET_PRICE);\n\n        addTicketAddress(buyerAddress);\n    }\n\n    function addTicketAddress (address addressNumber) public {\n        tickets.push(addressNumber);\n    }\n\n    function getTicketAddress () public view returns (address[] memory addresses) {\n        addresses = tickets;\n    }\n\n    function random(uint seed) public pure returns (uint) {  \n        return uint(keccak256(abi.encodePacked(seed)));\n    } //use case : random(0x7543def) % 100;\n\n    function drawWinner () public {\n\t    require(block.timestamp > ticketingCloses + 5 seconds);\n\t    require(winner == address(0));\n\n\t    bytes32 seed = keccak256(abi.encodePacked(blockhash(block.number-1)));\n\t    winner = payable(tickets[random(uint(seed)) % tickets.length]);\n\n        // sendWinnerPrice();\n    }\n\n    function checkIfWin (address ticketAddress) public view returns (bool) {\n        return (winner == ticketAddress ? true : false);\n    }\n\n    function sendWinnerPrice () payable public {\n\t    require(winner != address(0));\n        \n        payable(winner).transfer(address(this).balance);\n    }\n\n}",
  "sourcePath": "/Users/retepmil/Desktop/SmartContract/lottery/contracts/Lottery.sol",
  "compiler": {
    "name": "solc",
    "version": "0.6.1+commit.e6f7d5a4.Emscripten.clang"
  },
  "schemaVersion": "3.4.4",
  "updatedAt": "2022-02-03T13:34:45.259Z",
  "networkType": "ethereum",
  "devdoc": {
    "methods": {}
  },
  "userdoc": {
    "methods": {}
  }
}